:020000040000FA
:100000000C9463000C948B000C948B000C948B006C
:100010000C948B000C948B000C948B000C948B0034
:100020000C948B000C948B000C948B000C948B0024
:100030000C948B000C948B000C948B000C948B0014
:100040000C94F1080C948B000C94BF080C94990844
:100050000C948B000C948B000C948B000C948B00F4
:100060000C948B000C948B006364696E6F707375D5
:1000700078585B000000000800020100000304073C
:100080000000000000000000000000002500280023
:100090002B0000000000240027002A0004040404B0
:1000A0000404040402020202020203030303030322
:1000B00001020408102040800102040810200102FF
:1000C00004081020A00911241FBECFEFD8E0DEBF26
:1000D000CDBF23E0AEE8B1E001C01D92A834B20765
:1000E000E1F711E0A0E0B1E0E0EBF9E202C0059039
:1000F0000D92AE38B107D9F710E0C3E6D0E004C0E6
:100100002197FE010E94A60FC236D107C9F70E94AF
:10011000E4090C94D6140C94000090E0FC01E05526
:10012000FF4F249184569F4FFC018491882399F0BE
:1001300090E0880F991FFC01EE56FF4FA591B491F6
:10014000FC01E857FF4F859194918FB7F894EC919B
:10015000E22BEC938FBF0895CF92DF92EF92FF9244
:100160001F93CF93DF93EC0120E030E048EC52E4A2
:10017000688D798D8A8D9B8D0E94B40C882319F12E
:10018000CC8CDD8CEE8CFF8C20E030E048EC52EC27
:10019000C701B6010E94B40C87FF1DC0F7FAF094A6
:1001A000F7F8F09420E030E0A901C701B6010E9401
:1001B000B40C811120C01B821C821D821E82C88E3D
:1001C000D98EEA8EFB8EDF91CF911F91FF90EF9039
:1001D000DF90CF90089520E030E048EC52E4C70172
:1001E000B6010E94B40C87FDDDCFC12CD12C88EC68
:1001F000E82E82E4F82EA701960160E074E284E71D
:1002000099E40E947F0E9F770E94F80E6B837C8397
:100210008D839E8311E020E030E0A901C701B60183
:100220000E94270F18160CF010E01A83C8CFAF9267
:10023000BF92CF92DF92EF92FF920F931F93CF93D3
:10024000DF936C017B018B01040F151FEB015E0135
:10025000AE18BF08C017D10759F06991D601ED91CA
:10026000FC910190F081E02DC6010995892B79F769
:10027000C501DF91CF911F910F91FF90EF90DF901B
:10028000CF90BF90AF900895FC01538D448D252FE2
:1002900030E0842F90E0821B930B541710F0CF9620
:1002A000089501970895FC01918D828D981761F052
:1002B000A28DAE0FBF2FB11D5D968C91928D9F5F69
:1002C0009F73928F90E008958FEF9FEF08952FB75F
:1002D000F8948091930190919401A0919501B0912F
:1002E00096012FBF80939F019093A001A093A1013D
:1002F000B093A20187E991E00E94530197FF26C0C5
:100300002FB7F8948091930190919401A091950159
:10031000B09196012FBF40919F015091A001609133
:10032000A1017091A201841B950BA60BB70B409104
:100330009B0150919C0160919D0170919E018417D9
:100340009507A607B707B0F28FEF9FEF0895FC015E
:10035000918D828D981731F0828DE80FF11D858D7A
:1003600090E008958FEF9FEF0895FC01918D228D0D
:10037000892F90E0805C9F4F821B91098F73992792
:10038000089587E991E00E94B50121E0892B09F4E5
:1003900020E0822F089580E090E0892B29F00E94D0
:1003A000C10181110C9400000895FC01A48DA80FD7
:1003B000B92FB11DA35ABF4F2C91848D90E00196A7
:1003C0008F739927848FA689B7892C93A089B189C7
:1003D0008C91837080648C93938D848D981306C068
:1003E0000288F389E02D80818F7D80830895EF92CC
:1003F000FF920F931F93CF93DF93EC0181E0888FDF
:100400009B8D8C8D98131AC0E889F989808185FFAE
:1004100015C09FB7F894EE89FF896083E889F98950
:1004200080818370806480839FBF81E090E0DF9152
:10043000CF911F910F91FF90EF900895F62E0B8DA5
:1004400010E00F5F1F4F0F731127E02E8C8D8E1160
:100450000CC00FB607FCFACFE889F989808185FFC7
:10046000F5CFCE010E94D501F1CFEB8DEC0FFD2F22
:10047000F11DE35AFF4FF0829FB7F8940B8FEA8982
:10048000FB8980818062CFCFCF93DF93EC01888D91
:100490008823B9F0AA89BB89E889F9898C9185FDFF
:1004A00003C0808186FD0DC00FB607FCF7CF8C918D
:1004B00085FFF2CF808185FFEDCFCE010E94D5016F
:1004C000E9CFDF91CF91089590E0FC01EC58FF4F08
:1004D0002491FC01E055FF4F3491FC01E456FF4F9D
:1004E000E491EE23C9F0222339F0233001F1A8F47E
:1004F000213019F1223029F1F0E0EE0FFF1FE8570B
:10050000FF4FA591B4918FB7F894EC91611126C07B
:1005100030953E233C938FBF08952730A9F02830B3
:10052000C9F0243049F7809180008F7D03C080910D
:1005300080008F7780938000DFCF84B58F7784BD74
:10054000DBCF84B58F7DFBCF8091B0008F77809318
:10055000B000D2CF8091B0008F7DF9CF3E2BDACFA3
:10056000CF93DF93EC0188E08FA70E948D006EA5EA
:1005700081E068278FA5DF91CF910C9464023FB78B
:10058000F89480918F0190919001A0919101B09188
:10059000920126B5A89B05C02F3F19F00196A11D19
:1005A000B11D3FBFBA2FA92F982F8827BC01CD01BD
:1005B000620F711D811D911D42E0660F771F881F1C
:1005C000991F4A95D1F708958F929F92AF92BF924B
:1005D000CF92DF92EF92FF920E94BF024B015C012B
:1005E0008AE0C82ED12CE12CF12C0E94BF026819A0
:1005F00079098A099B09683E734081059105A8F332
:1006000021E0C21AD108E108F10888EE880E83E0E3
:10061000981EA11CB11CC114D104E104F10429F7F6
:10062000FF90EF90DF90CF90BF90AF909F908F9012
:100630000895CF93DF93FC012781222329F1EC0158
:1006400080850E948D0089850E948D008F81843075
:1006500011F0883099F48A850E948D008B850E9464
:100660008D008FA58F3F81F00E948D006EA581E0E7
:1006700068278FA5DF91CF910C946402833011F02D
:10068000863079F78A85EBCFDF91CF910895CF93AC
:10069000DF93FC0127812223A1F0EC010190F0817E
:1006A000E02D0284F385E02D60E009958FA58F3F52
:1006B00041F00E948D006EA58FA5DF91CF910C9423
:1006C0006402DF91CF910895DC01ED91FC912285C8
:1006D00033854770552766277727415051096109AF
:1006E0007109473051056105710560F4FA01E5585B
:1006F000FC4F0C94A60F8503870389038B038D039E
:100700008F03910361E0F901099465E0FCCF64E097
:10071000FACF66E0F8CF62E0F6CF6AE0F4CF68E0A7
:10072000F2CF69E0F0CFCF93DF93EC01CB01BA01B8
:1007300026E030E040E050E00E94870F6230710513
:100740008105910589F16CF46115710581059105AB
:10075000D1F06130710581059105F9F0DF91CF91FC
:100760000895643071058105910561F124F16530CA
:1007700071058105910591F7E881F9810284F3857E
:10078000E02D66E006C0E881F9810284F385E02D62
:1007900064E0CE01DF91CF910994E881F981028470
:1007A000F385E02D65E0F5CFE881F9810284F385DA
:1007B000E02D61E0EECFE881F9810284F385E02D40
:1007C00063E0E7CFE881F9810284F385E02D62E000
:1007D000E0CFDC01ED91FC910284F385E02D4370C4
:1007E000552766277727423051056105710571F05D
:1007F000433051056105710559F0413051056105DE
:10080000710511F065E0099466E0FDCF6AE0FBCF69
:1008100069E0F9CFCF93DF93EC01CB01BA0123E07C
:1008200030E040E050E00E94870F613071058105A3
:10083000910599F06230710581059105A9F0672B4A
:10084000682B692BC1F4E881F9810284F385E02DDE
:1008500064E0CE01DF91CF910994E881F9810284AF
:10086000F385E02D61E0F5CFE881F9810284F3851D
:10087000E02D62E0EECFDF91CF910895DC01ED91A4
:10088000FC910284F385E02D437055276627772776
:10089000423051056105710571F043305105610524
:1008A000710559F0413051056105710511F062E0A3
:1008B000099463E0FDCF61E0FBCF60E0F9CFCF9317
:1008C000DF93EC01E881F9810284F385E02D8A81D0
:1008D00060E0811162E0CE010995E881F98102842E
:1008E000F385E02D8A8161E0811163E0CE010995F5
:1008F0008CA59DA58230910538F0880F991F880F2F
:10090000991F05970197F1F7E881F9810284F38532
:10091000E02D8A8160E0811162E0CE01DF91CF910C
:100920000994CF93DF93EC0120E030E0A901688DBA
:10093000798D8A8D9B8D0E94270F18162CF4E8A9BB
:10094000F9A9DF91CF910994EAA9FBA9FACFCF9237
:10095000DF92EF92FF920F931F93CF93DF93DC010F
:100960001796CC91C43039F0C83059F1C33019F022
:10097000C63049F1C2E08C01085F1F4FF12CE12C19
:10098000C62ED12CD1E0F8016481C6010E2C02C024
:10099000959587950A94E2F780FD6D270F5F1F4FAD
:1009A00080810E946402BFEFEB1AFB0AEC1658F339
:1009B000DF91CF911F910F91FF90EF90DF90CF903B
:1009C0000895C4E0D8CFC3E0D6CFDC011796EC91F0
:1009D0001797E93008F038C0F0E0EF50FB4F0C9467
:1009E000A60FFA04000506050C05120524051805D6
:1009F00024051E05ED91FC910684F785E02D0994F0
:100A0000ED91FC910088F189E02DF9CFED91FC91F9
:100A10000288F389E02DF3CFED91FC910488F589EC
:100A2000E02DEDCFED91FC910688F789E02DE7CF21
:100A3000ED91FC91008CF18DE02DE1CFED91FC91D9
:100A4000028CF38DE02DDBCF08954F925F926F9271
:100A50007F928F929F92AF92BF92CF92DF92EF924E
:100A6000FF920F931F93CF93DF93EC01CC88DD8827
:100A7000EE88FF8888899989AA89BB89C81AD90A0A
:100A8000EA0AFB0A688D798D8A8D9B8D9B01AC01EA
:100A90000E941A0D4B015C0168A179A18AA19BA15A
:100AA0009B01AC010E94130E9B01AC01C501B40176
:100AB0000E947F0E0E94F10EC114D104E104F104E2
:100AC00009F0B6C062307105810591050CF0D0C007
:100AD0001B821C821D821E82188E198E1A8E1B8EFE
:100AE0001CAA1DAA1EAA1FAAC12CD12C7601C701BF
:100AF000B601DF91CF911F910F91FF90EF90DF90A2
:100B0000CF90BF90AF909F908F907F906F905F90AD
:100B10004F9008951016110612061306B4F46C15C2
:100B20007D058E059F051CF42A812111A1C09B0122
:100B3000AC0188279927DC01821B930BA40BB50B12
:100B40008CAB9DABAEABBFAB93C0011511052105BE
:100B5000310509F48DC06C157D058E059F050CF0DF
:100B600087C08A81882309F483C030952095109529
:100B700001951F4F2F4F3F4F0CAB1DAB2EAB3FAB23
:100B800077C0011511052105310509F471C08824CC
:100B9000992454018C189D08AE08BF086815790582
:100BA0008A059B050CF064C08A81811161C0DDCF8C
:100BB000CCACDDACEEACFFACA7019601C701B60131
:100BC0000E94130E2B013C01C501B4010E94BB0C15
:100BD00020E030E040E850E40E941A0D20E030E0D0
:100BE00040E85FE30E94130E9B01AC01C301B20118
:100BF0000E947F0E9B01AC01C701B6010E94120E3C
:100C00003B016C01FE01E05CFF4FE080F18002815E
:100C100013819701A8010E94270F181614F473017D
:100C20008601C701D8018CAF9DAFAEAFBFAF3AC050
:100C30000CA91DA92EA93FA91C141D041E041F04E4
:100C40000CF468CF10161106120613060CF099CF9B
:100C50000027112798010C191D092E093F0960175B
:100C60007107820793070CF062CF2A8121115FCFB1
:100C70008CA89DA8AEA8BFA881149104A104B104BA
:100C800009F096CF88AD99ADAAADBBAD8CAF9DAF45
:100C9000AEAFBFAF81E01C141D041E041F040CF096
:100CA00080E08A833FEF831A930AA30AB30A8CAACF
:100CB0009DAAAEAABFAA8CAC9DACAEACBFACC50120
:100CC000B4010E94F80E6B017C01CB82DC82ED82C4
:100CD000FE82A501940160E074E284E799E40E9439
:100CE0007F0E688F798F8A8F9B8F2A812111FFCE8B
:100CF0009058688F798F8A8F9B8FF9CECF92DF9231
:100D0000EF92FF920F931F93CF93DF93EC016A0151
:100D10007B0120E030E0A901CB01B6010E94B40CB8
:100D200087FF04C0F7FAF094F7F8F094A701960152
:100D30006C8D7D8D8E8D9F8D0E94B40C882309F45F
:100D400046C0CC8EDD8EEE8EFF8E8E01005C1F4F76
:100D5000A701960160E074E284E799E40E947F0EA7
:100D6000F80160837183828393838CA99DA9AEA9C6
:100D7000BFA9181619061A061B064CF5688D798D41
:100D80008A8D9B8D9B01AC010E941A0D6B017C0129
:100D900068A179A18AA19BA19B01AC010E94130EBD
:100DA0009B01AC01C701B6010E947F0E0E94F10EAB
:100DB0006CAB7DAB8EAB9FABCE01DF91CF911F9122
:100DC0000F91FF90EF90DF90CF900C942505DF916D
:100DD000CF911F910F91FF90EF90DF90CF900895EA
:100DE000CF92DF92EF92FF92CF93DF93FC0143818A
:100DF000548165817681452B462B472B41F480E059
:100E0000DF91CF91FF90EF90DF90CF900895EC01AC
:100E10000E94BF026B017C0188A599A5AAA5BBA56C
:100E2000B701A601481B590B6A0B7B0B8B819C8178
:100E3000AD81BE81481759076A077B0700F388898F
:100E40009989AA89BB892A812223A1F00196A11D33
:100E5000B11D888B998BAA8BBB8B488959896A896C
:100E60007B89CE010E94E504C8A6D9A6EAA6FBA606
:100E700081E0C6CF0197A109B109EBCF4F925F92F4
:100E80006F927F928F929F92AF92BF92CF92DF929A
:100E9000EF92FF920F931F93CF93DF9349015A0173
:100EA0006701780126E636E646E65FE30E947F0E9C
:100EB0002B013C01D0E0C0E0BE010D2E000C880BE0
:100EC000990B0E94BB0CA30192010E94B40C87FFF6
:100ED00008C080E093E00E94F0060E94E4022196A0
:100EE000EBCF0E94E40226E636E646E65FE3C50164
:100EF000B4010E947F0E4B015C01D0E0C0E0BE0156
:100F00000D2E000C880B990B0E94BB0CA5019401BF
:100F10000E94B40C87FF08C08CEB92E00E94F006A0
:100F20000E94E4022196EBCF0E94E40226E636E618
:100F300046E65FE3C701B6010E947F0E6B017C01AC
:100F4000D0E0C0E0BE010D2E000C880B990B0E9472
:100F5000BB0CA70196010E94B40C87FF08C088E76C
:100F600092E00E94F0060E94E4022196EBCF90E00E
:100F700080E0DF91CF911F910F91FF90EF90DF9074
:100F8000CF90BF90AF909F908F907F906F905F9029
:100F90004F9008950895CF93DF93FC0101900020B6
:100FA000E9F73197AF01481B590BBC0187E991E084
:100FB0000E941701EC0142E050E068E471E087E92B
:100FC00091E00E9417018C0F9D1FDF91CF91089532
:100FD0000C946A100F931F93CF93DF93EC018881D9
:100FE0009981009759F02A813B812617370730F005
:100FF00081E0DF91CF911F910F9108958B016F5F79
:101000007F4F0E94F310009759F0998388831B83C8
:101010000A832C813D81232B59F7FC011082E8CFF4
:1010200080E0E7CF4F925F926F927F928F929F9274
:10103000AF92BF92CF92DF92EF92FF92CF93DF9366
:10104000EC016A017B0120E030E0A901CB01B6018F
:101050000E94B40C87FF04C0F7FAF094F7F8F094FC
:1010600088A099A0AAA0BBA0A7019601C501B401C0
:101070000E94B40C882309F44DC06CA97DA98EA9E7
:101080009FA90E94BB0C2B013C01A7019601C50141
:10109000B4010E947F0E9B01AC01C301B2010E940A
:1010A0001A0D0E94F10E6CAB7DAB8EAB9FABA7010E
:1010B000960160E070E080E090E40E947F0E0E9464
:1010C000320F26E53EE04DE25FE30E941A0D20E07C
:1010D00034E244E759E40E941A0D68AF79AF8AAF51
:1010E0009BAFC8A2D9A2EAA2FBA2E881F981008441
:1010F000F185E02DCE01DF91CF91FF90EF90DF9051
:10110000CF90BF90AF909F908F907F906F905F90A7
:101110004F900994DF91CF91FF90EF90DF90CF90A7
:10112000BF90AF909F908F907F906F905F904F9007
:1011300008951F920F920FB60F9211242F933F9391
:101140004F935F936F937F938F939F93AF93BF93CF
:10115000EF93FF9387E991E00E94D501FF91EF9112
:10116000BF91AF919F918F917F916F915F914F91BF
:101170003F912F910F900FBE0F901F9018951F92C7
:101180000F920FB60F9211242F938F939F93EF938B
:10119000FF93E091A701F091A8018081E091AD015A
:1011A000F091AE0182FD1BC090818091B0018F5FF4
:1011B0008F732091B101821741F0E091B001F0E00E
:1011C000E956FE4F958F8093B001FF91EF919F916B
:1011D0008F912F910F900FBE0F901F9018958081C7
:1011E000F4CF1F920F920FB60F9211242F933F93BB
:1011F0008F939F93AF93BF938091930190919401AC
:10120000A0919501B091960130918E0123E0230FBA
:101210002D3758F50196A11DB11D20938E018093A5
:10122000930190939401A0939501B09396018091BE
:101230008F0190919001A0919101B091920101963E
:10124000A11DB11D80938F0190939001A0939101F6
:10125000B0939201BF91AF919F918F913F912F9148
:101260000F900FBE0F901F90189526E8230F02963F
:10127000A11DB11DD2CFCF93DF93EC018AE191E0A4
:101280009983888381E08F83188A198A1A8A1B8A36
:101290001C8A1D8A1E8A1F8A188E198E1A8E1B8E12
:1012A0001C8E1D8E1E8E1F8E18A219A21AA21BA2A2
:1012B00080E090E0A0E8BFE38CA39DA3AEA3BFA312
:1012C0001B821C821D821E8221E030E03DA72CA7DC
:1012D0002FEF2FA718A619A61AA61BA6688749875D
:1012E00024E02A8725E02B871EA61CAA1DAA1EAA79
:1012F0001FAA18AE19AE1AAE1BAE1CAE1DAE1EAEA6
:101300001FAEFE01E05CFF4F80839183A283B38315
:101310001A821C861D861E861F86CE010E94190316
:1013200040E050E060E87FE3CE010E94120840E018
:1013300050E060E87FE3CE01DF91CF910C947E0610
:10134000E7E9F1E01382128288EE93E0A0E0B0E0DA
:1013500084839583A683B7838AE391E09183808316
:1013600085EC90E09587848784EC90E0978786876A
:1013700080EC90E0918B808B81EC90E0938B828B62
:1013800082EC90E0958B848B86EC90E0978B868B3B
:10139000118E128E138E148E45E062E080E093E091
:1013A0000E943B0946E063E08CEB92E00E943B091F
:1013B00047E064E088E792E00E943B094DE06CE082
:1013C00084E392E00C943B09CF93DF93CDB7DEB773
:1013D00064970FB6F894DEBF0FBECDBF789484B586
:1013E000826084BD84B5816084BD85B5826085BD21
:1013F00085B5816085BD80916E00816080936E00AF
:1014000010928100809181008260809381008091A0
:101410008100816080938100809180008160809351
:1014200080008091B10084608093B1008091B00011
:1014300081608093B00080917A00846080937A000C
:1014400080917A00826080937A0080917A00816036
:1014500080937A0080917A00806880937A0010925D
:10146000C100E091A701F091A80182E08083E091A2
:10147000A301F091A4011082E091A501F091A601D1
:101480008FEC80831092AF01E091AB01F091AC0141
:1014900086E08083E091A901F091AA0180818061BA
:1014A0008083E091A901F091AA0180818860808306
:1014B000E091A901F091AA01808180688083E09188
:1014C000A901F091AA0180818F7D808388E00E942C
:1014D0008D0088E00E948D0088E00E948D0088E0E9
:1014E0000E948D0080E093E00E94B00210920C03F5
:1014F00010920D0311E010932E0340E050E068ECD1
:1015000072E480E093E00E94120840E050E068EC52
:1015100072E480E093E00E947E0680E093E00E9407
:10152000AC0080E093E00E9419038CEB92E00E94F3
:10153000B0021092C8021092C9021093EA0240E071
:1015400050E068EC72E48CEB92E00E94120840E0FC
:1015500050E068EC72E48CEB92E00E947E068CEB2B
:1015600092E00E94AC008CEB92E00E94190388E7A5
:1015700092E00E94B00210928402109285021093B1
:10158000A60240E050E068EC72E488E792E00E9436
:10159000120840E050E068EC72E488E792E00E94B4
:1015A0007E0688E792E00E94AC0088E792E00E9405
:1015B000190384E392E00E94B0021092400210925C
:1015C00041021093620240E050E068EC72E484E370
:1015D00092E00E94120840E050E068EC72E484E37C
:1015E00092E00E947E0684E392E00E94AC0084E3D5
:1015F00092E00E941903E12CF12C00EA11E420E0B2
:1016000030E04CED52E460E070E084EB92E40E9444
:101610003E079E012F5F3F4F59011E013DE0230E03
:10162000311C2E018FE0480E511CFE017196FC8B7F
:10163000EB8B87E991E00E94B501181619060CF0B2
:1016400032C118861F821A8619861C861B8670E096
:1016500060E0CE0107960E94EA072F81388581114C
:101660002CC02115310519F0C9010E946A10188695
:101670001F821C861B861A8619860E94670197FDA9
:1016800024C08A30910509F189831A820B851C8553
:101690000F5F1F4FB801CE0107960E94EA0788230B
:1016A00061F32F8138858B859C85B501820F931F4F
:1016B0000E94B9111C870B87E0CF1C861B866AE449
:1016C00071E0C9010E94B911D8CFCF80D884C1146C
:1016D000D10439F00B851C8576010115110509F03F
:1016E000F0C01A8219821C821B821E821D8265E054
:1016F00070E0C5010E94EA0729813A81811117C172
:101700002115310519F0C9010E946A101A82198247
:101710001E821D821C821B824D815E8109811A817D
:101720008B859C858417950708F40EC18F81988559
:10173000009709F409C10115110509F409C1B8019F
:101740000E94C011FF24F394892B09F0F12CC801E9
:101750000E946A10FF2009F4FBC0BF92AF923F9233
:101760002F925F924F92FC89FF932B892F9381E5F3
:1017700091E09F938F9388858F938F818F930E94A1
:10178000CE116D857E85072E000C880B990B0E946B
:10179000BB0C209108013091090140910A01509140
:1017A0000B010E94120E6B017C016F857889072E58
:1017B000000C880B990B0E94BB0C20910401309106
:1017C000050140910601509107010E94120E3B0154
:1017D0004C0169897A89072E000C880B990B0E94AD
:1017E000BB0C209100013091010140910201509108
:1017F00003010E94120E87017601A40193010E9449
:101800003E070FB6F894DEBF0FBECDBF892B09F09F
:1018100098C069897A89072E000C880B990B0E9461
:10182000BB0C6093000170930101809302019093BF
:1018300003016F857889072E000C880B990B0E9495
:10184000BB0C609304017093050180930601909393
:1018500007016D857E85072E000C880B990B0E9471
:10186000BB0C609308017093090180930A01909367
:101870000B0169817A81072E000C880B990B0E945D
:10188000BB0C60930C0170930D0180930E0190933B
:101890000F0182E691E00E94CB078F819885009727
:1018A00011F00E946A1080E090E0892B09F4C1CE0B
:1018B0000E94C101882309F4BCCE0E940000B9CE69
:1018C00074014701FFEF8F1A9F0AF7018081082EEC
:1018D000000C990B0E94AB0C892B91F70150110958
:1018E0000C0D1D1DF8018081082E000C990B0E9423
:1018F000AB0C892B31F00E151F0518F001501109A2
:10190000F1CF0F5F1F4FA8014E195F095C874B870E
:10191000CE14DF0420F4B701C6010E94B011EF819C
:10192000F8858B859C85E80FF91F1082DACE85E05B
:1019300090E09E838D836BE471E0C9010E94B91130
:10194000EBCE82E791E0A7CF0115110509F0FECE9D
:101950008EE791E0A0CF91110C94870D803219F0A1
:1019600089508550C8F708950E94F60C08F481E06C
:101970000895E89409C097FB3EF490958095709582
:1019800061957F4F8F4F9F4F9923A9F0F92F96E9CB
:10199000BB279395F695879577956795B795F11140
:1019A000F8CFFAF4BB0F11F460FF1BC06F5F7F4FDD
:1019B0008F4F9F4F16C0882311F096E911C07723EF
:1019C00021F09EE8872F762F05C0662371F096E8F8
:1019D000862F70E060E02AF09A95660F771F881FC7
:1019E000DAF7880F9695879597F90895990F00086B
:1019F000550FAA0BE0E8FEEF16161706E807F907E1
:101A0000C0F012161306E407F50798F0621B730B7B
:101A1000840B950B39F40A2661F0232B242B252BFC
:101A200021F408950A2609F4A140A6958FEF811D9F
:101A3000811D08950E942D0D0C94A10D0E94930DFF
:101A400038F00E949A0D20F0952311F00C948A0D25
:101A50000C94900D11240C94D50D0E94B20D70F3CE
:101A6000959FC1F3950F50E0551F629FF001729F43
:101A7000BB27F00DB11D639FAA27F00DB11DAA1F52
:101A8000649F6627B00DA11D661F829F2227B00D9F
:101A9000A11D621F739FB00DA11D621F839FA00D2A
:101AA000611D221F749F3327A00D611D231F849F7A
:101AB000600D211D822F762F6A2F11249F575040D1
:101AC0009AF0F1F088234AF0EE0FFF1FBB1F661F4C
:101AD000771F881F91505040A9F79E3F510580F015
:101AE0000C948A0D0C94D50D5F3FE4F3983ED4F32B
:101AF000869577956795B795F795E7959F5FC1F7B9
:101B0000FE2B880F911D9695879597F90895992733
:101B10008827089597F99F6780E870E060E008954E
:101B20009FEF80EC089500240A94161617061806F5
:101B30000906089500240A941216130614060506D1
:101B40000895092E0394000C11F4882352F0BB0F62
:101B500040F4BF2B11F460FF04C06F5F7F4F8F4FC5
:101B60009F4F089557FD9058440F551F59F05F3F00
:101B700071F04795880F97FB991F61F09F3F79F0AF
:101B800087950895121613061406551FF2CF469531
:101B9000F1DF08C0161617061806991FF1CF8695B3
:101BA0007105610508940895E894BB276627772797
:101BB000CB0197F908952F923F924F925F926F92C7
:101BC0007F928F929F92AF92BF92CF92DF92EF92CD
:101BD000FF920F931F93CF93DF93CDB7DEB7CA1B4E
:101BE000DB0B0FB6F894DEBF0FBECDBF09942A8879
:101BF000398848885F846E847D848C849B84AA8421
:101C0000B984C884DF80EE80FD800C811B81AA81AD
:101C1000B981CE0FD11D0FB6F894DEBF0FBECDBF78
:101C2000ED0108955058BB27AA270E942A0E0C9454
:101C3000A10D0E94930D38F00E949A0D20F039F406
:101C40009F3F19F426F40C94900D0EF4E095E7FBF9
:101C50000C948A0DE92F0E94B20D58F3BA1762074F
:101C600073078407950720F079F4A6F50C94D40D3A
:101C70000EF4E0950B2EBA2FA02D0B01B9019001A7
:101C80000C01CA01A0011124FF27591B99F0593FEB
:101C900050F4503E68F11A16F040A22F232F342F33
:101CA0004427585FF3CF469537952795A795F04081
:101CB0005395C9F77EF41F16BA0B620B730B840B96
:101CC000BAF09150A1F0FF0FBB1F661F771F881F4E
:101CD000C2F70EC0BA0F621F731F841F48F48795A6
:101CE00077956795B795F7959E3F08F0B0CF939598
:101CF000880F08F09927EE0F9795879508950E9411
:101D0000930E0C94A10D0E949A0D58F00E94930D11
:101D100040F029F45F3F29F00C948A0D51110C9486
:101D2000D50D0C94900D0E94B20D68F39923B1F378
:101D3000552391F3951B550BBB27AA2762177307F1
:101D4000840738F09F5F5F4F220F331F441FAA1F85
:101D5000A9F335D00E2E3AF0E0E832D09150504041
:101D6000E695001CCAF72BD0FE2F29D0660F771FEF
:101D7000881FBB1F261737074807AB07B0E809F0D5
:101D8000BB0B802DBF01FF2793585F4F3AF09E3F5A
:101D9000510578F00C948A0D0C94D50D5F3FE4F357
:101DA000983ED4F3869577956795B795F7959F5F9D
:101DB000C9F7880F911D9695879597F90895E1E0E9
:101DC000660F771F881FBB1F621773078407BA0748
:101DD00020F0621B730B840BBA0BEE1F88F7E095A3
:101DE00008950E94F80E6894B1110C94D50D0895D1
:101DF0000E94BA0D88F09F5798F0B92F9927B751D4
:101E0000B0F0E1F0660F771F881F991F1AF0BA959E
:101E1000C9F714C0B13091F00E94D40DB1E008951B
:101E20000C94D40D672F782F8827B85F39F0B93F0D
:101E3000CCF3869577956795B395D9F73EF4909551
:101E40008095709561957F4F8F4F9F4F08950E94A9
:101E5000F60C08F48FEF089519F416F40C94900D15
:101E60000C94720F0E94BA0DB8F39923C9F3B6F31C
:101E70009F57550B87FF0E94800F0024A0E640EA81
:101E8000900180585695979528F4805C660F771FCF
:101E9000881F20F026173707480730F4621B730BA2
:101EA000840B202931294A2BA695179407942025C5
:101EB00031254A2758F7660F771F881F20F026170D
:101EC0003707480730F4620B730B840B200D311D6C
:101ED000411DA09581F7B901842F9158880F9695DF
:101EE000879508959F3F31F0915020F4879577951D
:101EF0006795B795880F911D9695879597F90895E1
:101F000091505040660F771F881FD2F70895052E15
:101F100097FB1EF400940E949E0F57FD07D00E946D
:101F2000AC0F07FC03D04EF40C949E0F50954095D7
:101F3000309521953F4F4F4F5F4F08959095809575
:101F4000709561957F4F8F4F9F4F0895EE0FFF1F44
:101F50000590F491E02D0994A1E21A2EAA1BBB1B57
:101F6000FD010DC0AA1FBB1FEE1FFF1FA217B30765
:101F7000E407F50720F0A21BB30BE40BF50B661F7B
:101F8000771F881F991F1A9469F76095709580953F
:101F900090959B01AC01BD01CF0108950F931F9354
:101FA000CF93DF938230910510F482E090E0E091CE
:101FB0004603F091470330E020E0B0E0A0E0309726
:101FC00099F42115310509F44AC0281B390B243036
:101FD0003105D8F58A819B816115710589F1FB0175
:101FE00093838283FE0111C040815181028113815C
:101FF00048175907E0F04817590799F4109761F00E
:1020000012960C93129713961C933296CF01DF9180
:10201000CF911F910F9108950093460310934703AA
:10202000F4CF2115310551F04217530738F0A901BB
:10203000DB019A01BD01DF01F801C1CFEF01F9CF4A
:102040009093470380934603CDCFFE01E20FF31F29
:10205000819391932250310939832883D7CF2091DE
:10206000440330914503232B41F420911201309118
:1020700013013093450320934403209110013091C4
:1020800011012115310541F42DB73EB740911401DE
:1020900050911501241B350BE0914403F091450349
:1020A000E217F307A0F42E1B3F0B2817390778F02F
:1020B000AC014E5F5F4F2417350748F04E0F5F1F8E
:1020C0005093450340934403819391939FCFF0E055
:1020D000E0E09CCFCF93DF930097E9F0FC013297CB
:1020E00013821282A0914603B0914703ED0130E0C4
:1020F00020E01097A1F420813181820F931F20915D
:102100004403309145032817390709F061C0F09363
:102110004503E0934403DF91CF910895EA01CE1780
:10212000DF07E8F54A815B819E0141155105B1F752
:10213000E901FB83EA8349915991C40FD51FEC173C
:10214000FD0761F4808191810296840F951FE9015A
:1021500099838883828193819B838A83F0E0E0E086
:1021600012968D919C9113970097B9F52D913C9102
:102170001197CD010296820F931F20914403309155
:1021800045032817390739F6309751F51092470360
:1021900010924603B0934503A0934403BCCFD3836E
:1021A000C28340815181840F951FC817D90761F4FC
:1021B0004E5F5F4F88819981480F591F518340833B
:1021C0008A819B81938382832115310509F0B0CFE9
:1021D000F0934703E09346039ECFFD01DC01C0CF9F
:1021E00013821282D7CFB0E0A0E0E9EFF0E10C94C7
:1021F000DD0D8C01009751F4CB010E94CE0F8C01B4
:10220000C801CDB7DEB7E0E10C94F90DFC01E60F93
:10221000F71F9C0122503109E217F30708F49DC013
:10222000D901CD91DC911197C617D70798F0C53029
:10223000D10530F3CE0104978617970708F3C61B24
:10224000D70B2297C193D1936D937C93CF010E94BA
:102250006A10D6CF5B01AC1ABD0A4C018C0E9D1ED4
:10226000A0914603B0914703512C412CF12CE12C55
:10227000109731F580914403909145038815990595
:1022800009F05CC04616570608F058C0809110014E
:1022900090911101009741F48DB79EB740911401C0
:1022A00050911501841B950BE817F90708F055C0EC
:1022B000F0934503E0934403F90171836083A0CF59
:1022C0008D919C91119712966C90129713967C9019
:1022D0001397A815B90559F56C0142E0C40ED11C3D
:1022E000CA14DB0420F1AC014A195B09DA01129629
:1022F000159780F06282738251834083D9016D9378
:102300007C93E114F10471F0D7011396FC93EE93E2
:10231000129776CF22968C0F9D1FF90191838083AF
:10232000F301EFCFF0934703E093460369CF4816DC
:10233000590608F42C017D01D3019ACFCB010E94EC
:10234000CE0F7C01009749F0AE01B8010E94B01198
:10235000C8010E946A10870153CF10E000E050CFFF
:10236000FB01DC0102C001900D9241505040D8F7B2
:102370000895FB01DC0101900D920020E1F7089522
:10238000FB01DC014150504030F08D9101908019EB
:1023900019F40020B9F7881B990B0895AEE0B0E05E
:1023A000E4EDF1E10C94EB0D85E08C838B899C8945
:1023B0009A838983AE01495E5F4F6D897E89CE0124
:1023C00001960E9472132E96E2E00C94070E20FDF7
:1023D00009C0FC0123FD05C022FF02C07383628394
:1023E00051834083089544FD17C046FD1DC0DB01A5
:1023F000FC01AA0FBB1FEE1FFF1F1094D1F76A0F3D
:102400007B1F8E1F9F1F660F771F881F991F620FEC
:10241000711D811D911D089533E0660F771F881F80
:10242000991F3150D1F7F3CF34E0F7CF0F931F93BB
:10243000CF93DF938C01C8010E948214EC0197FDB9
:1024400008C00E94AB0C892BB1F7B801CE010E94E5
:10245000BE14CE01DF91CF911F910F9108958F92FD
:102460009F92AF92BF92EF92FF920F931F93CF93E1
:10247000DF938C01D62F7A01B22E0E9482149C0128
:1024800033272B32310529F02D323105A9F4689418
:10249000B7F8D15061F480E0DF91CF911F910F9197
:1024A000FF90EF90BF90AF909F908F900895C801DC
:1024B0000E94821497FDEFCFCB2DCD7F2B2D207363
:1024C000F9F48033E9F4AA24AA94AD0E89F0C80186
:1024D0000E94821497FD0CC0282F2F7D283561F4AF
:1024E000C264D25029F0C8010E94821497FF08C02C
:1024F000812C912C54011BC0B6FE2BC0C260DA2D7A
:10250000812C912C540120ED280F283028F1C4FD96
:1025100009C02A3008F1C6FF05C02F7D3FEE320FFB
:102520003630C8F0B8010E94BE14C1FFB4CFC7FF57
:1025300008C0B094A09490948094811C911CA11C1C
:10254000B11C2C2FB501A401C7010E94E71181E045
:10255000A3CFC261D4CF27504C2FC501B4010E9434
:10256000F3114B015C01C260D15009F3C8010E9414
:10257000821497FFC8CFD9CFA0E2B0E0E2ECF2E13D
:102580000C94E00D5C01962E7A01CE0101966C014F
:1025900080E2F60111928A95E9F7F501B38189018C
:1025A00030E020E0712C812CA0E041E050E0F80107
:1025B000B3FD8591B3FF8191982F8F01811107C0E1
:1025C00010E000E0C801A096EDE00C94FC0D8E3503
:1025D00019F42115310541F1A21713064CF48D357C
:1025E00049F18D3229F4811006C0882483941DC0DE
:1025F000882009F464C0E92FE695E695E695EC0D90
:10260000FD2DF11D892F8770BA0101C0660F8A95D3
:10261000EAF78081682B6083791651F0971510F4E2
:102620009F5FE9CF9150E7CFA1E02F5F3F4FBFCF32
:10263000812CFBCF882019F08E8180628E83AA23A3
:1026400059F0F6019E012F5D3F4F80818095808378
:102650003196E217F307C9F788248394C5010E94D5
:10266000821497FD16C0E82FE695E695E695EC0DE9
:10267000FD2DF11D208130E0AC014770552702C0CF
:10268000359527954A95E2F720FD06C0B5010E94D1
:10269000BE14882069F094CFE114F10429F0F70109
:1026A0008083C70101967C019A94812C9110D6CF2A
:1026B000E114F10409F486CFF701108283CFE82FEB
:1026C000E695E695E695EC0DFD2DF11D982F97709A
:1026D000BA0101C0660F9A95EAF79081692B608371
:1026E000782EA3CFB0E0A0E0E8E7F3E10C94DE0D94
:1026F0006C01EB015A01FC0117821682512CF60184
:10270000E380FE01E3FC8591E3FE8191182FEF0148
:102710008823E9F090E00E94AB0C892B21F0C601E0
:102720000E941612ECCF153241F4FE01E3FC159124
:10273000E3FE1191EF01153269F4C6010E94821483
:1027400097FD8EC01817D9F2B6010E94BE14852DD0
:1027500090E08AC000E01A3231F4E3FC1591E3FE08
:102760001191EF0101E0F12C20ED210F2A3048F109
:1027700001FF37C0FF2059F31836B1F11C3609F4B8
:102780003DC0112321F3612F70E088E690E00E94A4
:102790007714892BE1F2912C812C00FD06C0F50104
:1027A00080809180C50102965C011E3679F5F601A4
:1027B0004681578170E060E0202FC4010E94E7113C
:1027C0009ECF02606F2D70E090E080E040E20E94BA
:1027D000F311F62EFE01E3FC1591E3FE1191EF01DA
:1027E000C3CFFF24FA94C8CFFE01E3FC1591E3FEAA
:1027F0001191EF01183609F0C4CF08600460FE01A2
:10280000E3FC1591E3FE1191EF01BBCF1336C1F448
:1028100001FD02C0FF24F394C6010E94821497FDBB
:102820001FC08114910429F0F4018083C401019632
:102830004C01FA94F110F0CF00FD61CF53945FCFBB
:102840001B35B9F49E01A4016F2DC6010E94BC1274
:10285000EC01892B89F7F6018381807309F477CF26
:102860008FEF9FEF511073CFCDB7DEB7EFE00C9431
:10287000FA0DC6010E94161297FDF2CF1F36A9F17C
:1028800030F4143641F0193639F0006405C01337BE
:10289000B9F01537D1F70062202FA4016F2DC601C2
:1028A0000E942F128111C8CFD6CF8114910429F034
:1028B000F4016082C40101964C01FA94FF2071F08A
:1028C000C6010E9482143C0197FD08C00E94AB0C17
:1028D000892B59F3B601C3010E94BE1481149104DF
:1028E00009F4AACFF4011082A7CF0061D5CFFC0173
:1028F0000590061621F00020D9F7C0010895319700
:10290000CF010895CF93DF93EC012B8120FF1AC0F4
:1029100026FF0CC02F7B2B838E819F8101969F8386
:102920008E838A8190E0DF91CF91089522FF18C0B5
:10293000E881F9818081082E000C990B009729F419
:1029400020622B838FEF9FEFEECF3196F983E883E0
:102950002E813F812F5F3F4F3F832E839927E3CF07
:10296000EA85FB85099597FFF3CF2B81019621F02E
:1029700080E2822B8B83E6CF80E1FBCFFB012381BA
:1029800020FF11C026FD0FC08F3F980771F0828392
:102990002F7D20642383268137812150310937839D
:1029A0002683992708958FEF9FEF0895F894FFCF1E
:1029B0000000B4420000DC420000A0410000000022
:1029C0000000480380000000000047031903CA0705
:1029D000E8072505A704E50491045F043E040A0402
:1029E000E9039303640300000000F70117014401A9
:1029F0004402B5015301A7010D0A004D4F56452071
:102A0000004D4F564520256420256420256420254F
:102A100064004D6F766520737563636573736675C7
:102A20006C004D6F7665206661696C656400556E5B
:0E2A30006B6E6F776E20636F6D6D616E64006C
:107E0000112484B714BE81FFF0D085E080938100F7
:107E100082E08093C00088E18093C10086E0809377
:107E2000C20080E18093C4008EE0C9D0259A86E02C
:107E300020E33CEF91E0309385002093840096BBD3
:107E4000B09BFECF1D9AA8958150A9F7CC24DD24C4
:107E500088248394B5E0AB2EA1E19A2EF3E0BF2EE7
:107E6000A2D0813461F49FD0082FAFD0023811F036
:107E7000013811F484E001C083E08DD089C08234E0
:107E800011F484E103C0853419F485E0A6D080C0E4
:107E9000853579F488D0E82EFF2485D0082F10E0AE
:107EA000102F00270E291F29000F111F8ED06801E7
:107EB0006FC0863521F484E090D080E0DECF843638
:107EC00009F040C070D06FD0082F6DD080E0C81688
:107ED00080E7D80618F4F601B7BEE895C0E0D1E017
:107EE00062D089930C17E1F7F0E0CF16F0E7DF06D8
:107EF00018F0F601B7BEE89568D007B600FCFDCFD4
:107F0000A601A0E0B1E02C9130E011968C91119780
:107F100090E0982F8827822B932B1296FA010C0160
:107F200087BEE89511244E5F5F4FF1E0A038BF0790
:107F300051F7F601A7BEE89507B600FCFDCF97BE46
:107F4000E89526C08437B1F42ED02DD0F82E2BD052
:107F50003CD0F601EF2C8F010F5F1F4F84911BD097
:107F6000EA94F801C1F70894C11CD11CFA94CF0C13
:107F7000D11C0EC0853739F428D08EE10CD085E9AC
:107F80000AD08FE07ACF813511F488E018D01DD067
:107F900080E101D065CF982F8091C00085FFFCCF94
:107FA0009093C60008958091C00087FFFCCF809118
:107FB000C00084FD01C0A8958091C6000895E0E648
:107FC000F0E098E1908380830895EDDF803219F02E
:107FD00088E0F5DFFFCF84E1DECF1F93182FE3DFCA
:107FE0001150E9F7F2DF1F91089580E0E8DFEE27F6
:047FF000FF270994CA
:027FFE00040479
:00000001FF
